:18BD0000CD19BECDA6BD21B0BECD6CBE21CDBECD6CBECD42BEFE0D282E
:18BD1800F9FE0A28F5FE2028F1FE1B2865CD10BECD5DBEFE3A2051CD1F
:18BD3000B1BD571E00CDA0BDCDD6BD7CCDA0BD7DCDA0BDCDB1BDCDA099
:18BD4800BDFE012015CDB1BDCDA0BD7BA7283DCDA6BD21A0BECD6CBE60
:18BD600018247AA7280BCDB1BDCDA0BD77231518F1CDB1BDCDA0BD7B3E
:18BD7800A720DCCDA6BD1892218DBECD6CBECDA6BDC721FABECD6CBE0C
:18BD9000CD86BDC9CDA6BD2178BECD6CBECD86BD4F7B915F79C93E0DED
:18BDA800CD5DBE3E0ACD5DBEC9C5CDC4BDCB07CB07CB07CB0747CDC46F
:18BDC000BDB0C1C9CD42BECD10BECDE1BD30F5CDF5BDCD00BEC9F5CDE7
:18BDD800B1BD67CDB1BD6FF1C9FE47D0FE3030023FC9FE3AD8FE41301E
:18BDF000023FC937C9FE3A3802D607D630E60FC9F5E60FC630FE3A38CE
:18BE080002C607CD5DBEF1C9FE61D8FE7BD0E65FC90EC83E03ED791195
:18BE200000011B7AFE0020FA7BFE0020F50EC83E16ED79C90EC83E560B
:18BE3800ED79C90EC83E16ED79C9C5D5E5CD3BBE0EC8ED78CB4728FAB6
:18BE50000EC9ED786FCD34BE7DE1D1C1C9F50EC8ED78CB4F28FA0EC974
:10BE6800F1ED79C97EFE002806CD5DBE2318F5C91F
:18BE78005472616E7366657220636F6D706C6574652E0D0A00203C2D26
:18BE900053796E746178206572726F72210D0A00436865636B73756D5E
:18BEA800206572726F722100496E74656C206865782066696C65206C6A
:18BEC0006F616465722076312E310D0A0053656E642066696C65207741
:18BED80068656E2072656164792E205072657373203C4573633E20743E
:18BEF0006F20717569742E0D0A005175697474696E672070726F677204
:06BF0800616D2E0D0A0020
:00000001FF
