:18BD0000CD1CBECDA9BD21B3BECD6FBE21D0BECD6FBECD45BEFE0D2819
:18BD1800F9FE0A28F5FE2028F1FE1B2868CD13BECD60BEFE3A2051CD16
:18BD3000B4BD571E00CDA3BDCDD9BD7CCDA3BD7DCDA3BDCDB4BDCDA384
:18BD4800BDFE012015CDB4BDCDA3BD7BA72840CDA9BD21A3BECD6FBE4E
:18BD600018247AA7280BCDB4BDCDA3BD77231518F1CDB4BDCDA3BD7B32
:18BD7800A720DCCDA9BD18922190BECD6FBECDA9BDCD3EBEC721FDBE2B
:18BD9000CD6FBECD86BDC9CDA9BD217BBECD6FBECD86BD4F7B915F79FE
:18BDA800C93E0DCD60BE3E0ACD60BEC9C5CDC7BDCB07CB07CB07CB072A
:18BDC00047CDC7BDB0C1C9CD45BECD13BECDE4BD30F5CDF8BDCD03BE88
:18BDD800C9F5CDB4BD67CDB4BD6FF1C9FE47D0FE3030023FC9FE3AD8FC
:18BDF000FE4130023FC937C9FE3A3802D607D630E60FC9F5E60FC630CF
:18BE0800FE3A3802C607CD60BEF1C9FE61D8FE7BD0E65FC90EC83E0399
:18BE2000ED791100011B7AFE0020FA7BFE0020F50EC83E16ED79C90EF0
:18BE3800C83E56ED79C90EC83E16ED79C9C5D5E5CD3EBE0EC8ED78CBC0
:18BE50004728FA0EC9ED786FCD37BE7DE1D1C1C9F50EC8ED78CB4F28D9
:13BE6800FA0EC9F1ED79C97EFE002806CD60BE2318F5C948
:18BE7B005472616E7366657220636F6D706C6574652E0D0A00203C2D23
:18BE930053796E746178206572726F72210D0A00436865636B73756D5B
:18BEAB00206572726F722100496E74656C206865782066696C65206C67
:18BEC3006F616465722076312E320D0A0053656E642066696C6520773D
:18BEDB0068656E2072656164792E205072657373203C4573633E20743B
:18BEF3006F20717569742E0D0A005175697474696E672070726F677201
:06BF0B00616D2E0D0A001D
:00000001FF
